:100000000C946C000C9494000C9494000C94940048
:100010000C9494000C9494000C9494000C94940010
:100020000C9494000C9494000C9494000C94940000
:100030000C9494000C9494000C9494000C949400F0
:100040000C942D060C9494000C949D060C94770649
:100050000C9494000C9494000C9494000C949400D0
:100060000C9494000C94940005A84CCDB2D44EB9D5
:100070003836A9020C50B9918688083CA6AAAA2A4B
:10008000BE000000803F00000000240027002A007E
:1000900000000000250028002B00040404040404D0
:1000A0000404020202020202030303030303010227
:1000B00004081020408001020408102001020408F6
:1000C00010200000000800020100000304070000E7
:1000D000000000000000CF0611241FBECFEFD8E0C3
:1000E000DEBFCDBF11E0A0E0B1E0E0EAF3E302C083
:1000F00005900D92A637B107D9F722E0A6E7B1E047
:1001000001C01D92A833B207E1F710E0CCE6D0E0C1
:1001100004C02197FE010E94A318CB36D107C9F76E
:100120000E94C8080C94CE190C940000E5ECF0E095
:100130002491E1EBF0E09491EDE9F0E0E491EE231D
:10014000C9F0222339F0233001F1A8F4213019F14C
:10015000223029F1F0E0EE0FFF1FE057FF4FA5918D
:10016000B4912FB7F894EC91811126C090959E23FD
:100170009C932FBF08952730A9F02830C9F0243070
:1001800049F7209180002F7D03C0209180002F77B8
:1001900020938000DFCF24B52F7724BDDBCF24B59B
:1001A0002F7DFBCF2091B0002F772093B000D2CFCE
:1001B0002091B0002F7DF9CF9E2BDACFE1EBF0E05C
:1001C0002491EDE9F0E08491882399F090E0880F84
:1001D000991FFC01EA57FF4FA591B491FC01E0572C
:1001E000FF4F859194918FB7F894EC91E22BEC93AB
:1001F0008FBF08954F925F926F927F928F929F92DE
:10020000AF92BF92CF92DF92EF92FF920F931F9324
:10021000CF93DF93CDB7DEB76C970FB6F894DEBF00
:100220000FBECDBF698B7A8B8B8B9C8B2D8B3E8BBE
:100230004F8B588F2BA93CA94DA95EA96BAD7CAD06
:100240008DAD9EAD0E94C115698F7A8F8B8F9C8F6B
:1002500029893A894B895C89C801B7010E94C11577
:1002600069877A878B879C872FA538A949A95AA9BE
:100270006FA978AD89AD9AAD0E94C1152B013C01E3
:100280002D893E894F89588DC601B5010E94C1153F
:100290006D877E878F87988B29853A854B855C850E
:1002A000698D7A8D8B8D9C8D0E9492174B015C011C
:1002B0002D853E854F855889C301B2010E94921752
:1002C0009B01AC01C501B4010E94C1154B015C0149
:1002D00020E030E0A9010E942E1687FFD1C0C501A1
:1002E000B40190582FE632E143E85AE30E942E16FB
:1002F00087FDC9C02BA93CA94DA95EA96D897E893E
:100300008F89988D0E94C1156D837E838F83988716
:100310002FA538A949A95AA969897A898B899C8905
:100320000E94C11569837A838B839C832D813E81D2
:100330004F815885C301B2010E9492172B013C01E5
:1003400029813A814B815C81698D7A8D8B8D9C8D61
:100350000E9492179B01AC01C301B2010E94C1151A
:10036000A50194010E9433166B017C0120E030E06E
:10037000A9010E942E1687FD86C020E030E040E8EB
:100380005FE3C701B6010E948D1718160CF47BC0FD
:100390002D813E814F81588569857A858B859C8525
:1003A0000E9492172B013C0129813A814B815C818B
:1003B0006D857E858F8598890E9492179B01AC017F
:1003C000C301B2010E94C115A50194010E94331618
:1003D0004B015C0120E030E0A9010E942E1687FD50
:1003E00052C020E030E040E85FE3C501B4010E9464
:1003F0008D1718160CF447C0A701960169857A85F8
:100400008B859C850E94921729893A894B895C8942
:100410000E94C2152196EEADFFAD219760837183D6
:1004200082839383A70196016D857E858F85988948
:100430000E9492172D893E894F89588D0E94C215BE
:100440002396EEADFFAD2397608371838283938300
:1004500081E06C960FB6F894DEBF0FBECDBFDF9182
:10046000CF911F910F91FF90EF90DF90CF90BF90B1
:10047000AF909F908F907F906F905F904F90089576
:10048000C501B4012FCF80E0E4CF3FB7F89480914D
:100490007B0190917C01A0917D01B0917E0126B5F8
:1004A000A89B05C02F3F19F00196A11DB11D3FBFAC
:1004B000BA2FA92F982F8827BC01CD01620F711D7B
:1004C000811D911D42E0660F771F881F991F4A9575
:1004D000D1F70895AF92BF92CF92DF92EF92FF9241
:1004E0000F931F93CF93DF936C017B018B01040F5C
:1004F000151FEB015E01AE18BF08C017D10759F0F8
:100500006991D601ED91FC910190F081E02DC60139
:100510000995892B79F7C501DF91CF911F910F9133
:10052000FF90EF90DF90CF90BF90AF900895FC01C7
:10053000538D448D252F30E0842F90E0821B930B48
:10054000541710F0CF96089501970895FC01918DEE
:10055000828D981761F0A28DAE0FBF2FB11D5D96F1
:100560008C91928D9F5F9F73928F90E008958FEF93
:100570009FEF0895FC01918D828D981731F0828D47
:10058000E80FF11D858D90E008958FEF9FEF08959E
:10059000FC01918D228D892F90E0805C9F4F821B02
:1005A00091098F73992708958FE791E00E94C802FF
:1005B00021E0892B09F420E0822F089580E090E06B
:1005C000892B29F00E94D40281110C940000089517
:1005D000FC01A48DA80FB92FB11DA35ABF4F2C91B8
:1005E000848D90E001968F739927848FA689B789AF
:1005F0002C93A089B1898C91837080648C93938DA6
:10060000848D981306C00288F389E02D80818F7D48
:1006100080830895EF92FF920F931F93CF93DF9300
:10062000EC0181E0888F9B8D8C8D98131AC0E8892E
:10063000F989808185FF15C09FB7F894EE89FF89FD
:100640006083E889F98980818370806480839FBF9B
:1006500081E090E0DF91CF911F910F91FF90EF909B
:100660000895F62E0B8D10E00F5F1F4F0F731127AB
:10067000E02E8C8D8E110CC00FB607FCFACFE889E6
:10068000F989808185FFF5CFCE010E94E802F1CF84
:10069000EB8DEC0FFD2FF11DE35AFF4FF0829FB75A
:1006A000F8940B8FEA89FB8980818062CFCFCF934A
:1006B000DF93EC01888D8823B9F0AA89BB89E8898A
:1006C000F9898C9185FD03C0808186FD0DC00FB630
:1006D00007FCF7CF8C9185FFF2CF808185FFEDCFAE
:1006E000CE010E94E802E9CFDF91CF9108958F9269
:1006F0009F92AF92BF92CF92DF92EF92FF920F93B1
:100700001F93CF93DF93EC018A819B818230910507
:1007100009F453C03CF40197D9F1E12CF12C00E02D
:1007200010E03CC08330910509F49EC00497A9F7FE
:10073000888199818130910509F4EFC0029769F7AA
:1007400008851985C8010E9477036B017C010A8422
:10075000DB85C02D20E030E0A9010E948D1718161E
:1007600054F0CE010E94770320E030E0A9010E94FE
:100770008D17181694F6CE010E9477039B01AC01E9
:10078000C701B6010E948D1718160CF0BDCFECC042
:10079000EC81FD81E088F18802891389B701C801E5
:1007A000DF91CF911F910F91FF90EF90DF90CF904D
:1007B000BF90AF909F908F900895888199818130EC
:1007C000910539F1029709F0A8CFEC81FD81A0884D
:1007D000B188C288D388EE81FF81E088F1880289E0
:1007E000138920E030E0A901B501C6010E948D17F0
:1007F000181654F020E030E0A901B701C8010E94AA
:100800008D1718160CF089CF9501A601B701C80104
:1008100024C0EC81FD81A088B188C288D38820E003
:1008200030E0A901B501C6010E948D1718160CF021
:1008300074CFEE81FF81E088F1880289138920E07E
:1008400030E0A901B701C8010E948D1718160CF0FD
:1008500064CF9701A801B501C6010E942E1687FF3B
:100860009DCF750186019ACF88819981813091054C
:1008700051F1029709F051CFEC81FD81E088F188B8
:10088000028913890884D985C02D20E030E0A901B0
:10089000B701C8010E948D1718165CF0CE010E94A6
:1008A000770320E030E0A9010E948D1718160CF0A4
:1008B00034CFCE010E9477039701A8010E942E1623
:1008C00087FF22CF6BCFEC81FD81E088F188028920
:1008D000138920E030E0A901B701C8010E948D17FB
:1008E00018160CF01ACF0884D985C02DCE010E94AD
:1008F00077034B015C0120E030E0A9010E948D17D5
:1009000018160CF00ACF9701A801C501B4010E9486
:100910008D1718160CF0F8CE41CF08851985C8013F
:100920000E9477036B017C0120E030E0A9010E9466
:100930008D1718160CF0F1CE0A84DB85C02DCE0180
:100940000E9477034B015C0120E030E0A9010E9486
:100950008D1718160CF0E1CEA5019401C701B60160
:100960000E942E1687FFD0CEE801CECE0F931F93A4
:10097000CF93DF93EC018B0184E090E00E94A918F3
:100980000097D1F0FC011183008313821282E88169
:10099000F981309749F49983888381E0DF91CF9181
:1009A0001F910F910895F90122813381211531059D
:1009B000D1F793838283F1CF80E0F0CF0F931F9321
:1009C000CF93DF93EC018B0184E090E00E94A918A3
:1009D0000097D1F0FC011183008313821282EE8113
:1009E000FF81309749F49F838E8381E0DF91CF911F
:1009F0001F910F910895F90122813381211531054D
:100A0000D1F793838283F1CF80E0F0CF8F929F92D2
:100A1000AF92BF92CF92DF92EF92FF920F931F930C
:100A2000CF93DF93EC014A015B01680179018CE00F
:100A300090E00E94A918FC0180E0309799F01182A3
:100A4000108282829382A482B582C682D782E08697
:100A5000F18613861286A881B981109789F4F983EB
:100A6000E88381E0DF91CF911F910F91FF90EF908C
:100A7000DF90CF90BF90AF909F908F900895DC0152
:100A80001A968D919C911B970097C9F7B183A0830B
:100A90001B96FC93EE931A97E4CF0F931F93CF937B
:100AA000DF93EC018B0184E090E00E94A91800978D
:100AB000D1F0FC011183008313821282EC81FD814D
:100AC000309749F49D838C8381E0DF91CF911F9112
:100AD0000F910895F9012281338121153105D1F754
:100AE00093838283F1CF80E0F0CF0F931F93CF9356
:100AF000DF93EC018B0184E090E00E94A91800973D
:100B0000D1F0FC011183008313821282E881F98104
:100B1000309749F49983888381E0DF91CF911F91C9
:100B20000F910895F9012281338121153105D1F703
:100B300093838283F1CF80E0F0CFFC01019000200D
:100B4000E9F73197AF01481B590BBC018FE791E0E2
:100B50000C946A028F929F92AF92BF920F931F9351
:100B6000CF93DF93CDB7DEB7A1970FB6F894DEBF72
:100B70000FBECDBF19A2423008F44AE08E010F5DCE
:100B80001F4F842E912CB12CA12CA50194010E9401
:100B90009015E62FB901CA01EA30F4F4E05DD801FE
:100BA000EE938D01232B242B252B79F790E080E009
:100BB000109719F0CD010E949D05A1960FB6F894EB
:100BC000DEBF0FBECDBFDF91CF911F910F91BF90C0
:100BD000AF909F908F900895E95CE1CFCF92DF9224
:100BE000EF92FF92CF93DF936C01990FEE08FF080D
:100BF000F7FE19C06DE28FE791E00E940A03EC0155
:100C000066277727CB016C197D098E099F094AE079
:100C10000E94AA058C0F9D1FDF91CF91FF90EF904E
:100C2000DF90CF9008954AE0C701B601DF91CF91E0
:100C3000FF90EF90DF90CF900C94AA05CF93DF93B5
:100C4000EB016A857B856115710511F00E941E0616
:100C5000CE01DF91CF910C9445191F920F920FB6E0
:100C60000F9211242F933F938F939F93AF93BF9332
:100C70008091770190917801A0917901B0917A01EA
:100C80003091760123E0230F2D3758F50196A11DF1
:100C9000B11D209376018093770190937801A09302
:100CA0007901B0937A0180917B0190917C01A091B0
:100CB0007D01B0917E010196A11DB11D80937B0144
:100CC00090937C01A0937D01B0937E01BF91AF9181
:100CD0009F918F913F912F910F900FBE0F901F907A
:100CE000189526E8230F0296A11DB11DD2CF1F92A1
:100CF0000F920FB60F9211242F933F934F935F9350
:100D00006F937F938F939F93AF93BF93EF93FF93D3
:100D10008FE791E00E94E802FF91EF91BF91AF91C0
:100D20009F918F917F916F915F914F913F912F9103
:100D30000F900FBE0F901F9018951F920F920FB635
:100D40000F9211242F938F939F93EF93FF93E09132
:100D50008F01F09190018081E0919501F0919601D1
:100D600082FD1BC09081809198018F5F8F732091CD
:100D70009901821741F0E0919801F0E0E158FE4FAF
:100D8000958F80939801FF91EF919F918F912F9173
:100D90000F900FBE0F901F9018958081F4CF4F9247
:100DA0005F926F927F928F929F92AF92BF92CF92FB
:100DB000DF92EF92FF92EFE7F1E01382128288EE6A
:100DC00093E0A0E0B0E084839583A683B7838AE0B4
:100DD00091E09183808385EC90E09587848784EC13
:100DE00090E09787868780EC90E0918B808B81ECF8
:100DF00090E0938B828B82EC90E0958B848B86ECD9
:100E000090E0978B868B118E128E138E148E86E057
:100E100090E00E94A918FC011182108213821282B4
:100E200015821482909333028093320284E190E021
:100E30000E94A918FC01108211821282138214826E
:100E4000158216821782C12CD12C80EAE82E81E40B
:100E5000F82EC086D186E286F38680E090E0A0E29C
:100E6000B2E484879587A687B787108A118A128A89
:100E7000138AF0933102E093300284E190E00E9403
:100E8000A918FC0180E090E0A0EFB1E48083918399
:100E9000A283B383812C912C98E4A92E92E4B92EDD
:100EA00084829582A682B78280869186A286B38646
:100EB00080E090E0ACE8B2E484879587A687B787A6
:100EC000108A118A128A138AF0932F02E0932E025D
:100ED00084E190E00E94A918FC0180E090E0A0E786
:100EE000B2E480839183A283B38380E090E0A0EAA0
:100EF000B2E484839583A683B78380E090E0A8EC76
:100F0000B2E480879187A287B38784879587A68775
:100F1000B787108A118A128A138AF0932D02E09300
:100F20002C0284E190E00E94A918FC011082118239
:100F3000128213821482158216821782412C512C40
:100F400020E7622E21E4722E4086518662867386E7
:100F5000C486D586E686F786108A118A128A138A95
:100F600090932B0280932A0284E190E00E94A918BA
:100F7000FC01408251826282738280E090E0A8ECA2
:100F8000B1E484839583A683B78380879187A28702
:100F9000B38780E090E0ACE0B2E484879587A687D1
:100FA000B787108A118A128A138AF0932902E09374
:100FB000280284E190E00E94A918FC0180E090E002
:100FC000A0EFB1E480839183A283B38380E090E0BB
:100FD000A0E2B2E484839583A683B783808691865A
:100FE000A286B38684869586A686B786108A118ADD
:100FF000128A138AF0932702E093260284E190E09C
:101000000E94A918FC01812C912C30ECA32E30E415
:10101000B32E80829182A282B38280E090E0A0E42D
:10102000B1E484839583A683B78380879187A28761
:10103000B387412C512C40E9642E41E4742E448640
:10104000558666867786108A118A128A138AF093EB
:101050002502E093240284E190E00E94A918FC019B
:10106000408251826282738280E090E0A0ECB1E421
:1010700084839583A683B783108611861286138690
:1010800084869586A686B786108A118A128A138A64
:10109000F0932302E093220284E190E00E94A918D9
:1010A000FC01108211821282138214821582168230
:1010B0001782108611861286138680E090E0A0E2E7
:1010C000B1E484879587A687B787108A118A128A28
:1010D000138AF0932102E093200284E190E00E94C1
:1010E000A918FC0180E090E0A0EAB0E4808391833D
:1010F000A283B383C482D582E682F782C086D1867A
:10110000E286F38680E090E0A0E2B2E484879587EF
:10111000A687B787108A118A128A138AF0931F0252
:10112000E0931E0284E190E00E94A918FC0180E097
:1011300090E0A0E7B2E480839183A283B38380E050
:1011400090E0A0EAB2E484839583A683B78380E02D
:1011500090E0A8ECB2E480879187A287B387848768
:101160009587A687B787108A118A128A138AF09307
:101170001D02E0931C02FF90EF90DF90CF90BF9094
:10118000AF909F908F907F906F905F904F90089559
:10119000CF93DF93CDB7DEB7C854D1090FB6F8941B
:1011A000DEBF0FBECDBF789484B5826084BD84B5A8
:1011B000816084BD85B5826085BD85B5816085BD52
:1011C00080916E00816080936E001092810080910A
:1011D0008100826080938100809181008160809392
:1011E0008100809180008160809380008091B100B7
:1011F00084608093B1008091B00081608093B000E2
:1012000080917A00846080937A0080917A00826075
:1012100080937A0080917A00816080937A00809137
:101220007A00806880937A001092C100E0918F016B
:10123000F091900182E08083E0918B01F0918C012C
:101240001082E0918D01F0918E018FEC80831092DD
:101250009701E0919301F091940186E08083E09101
:101260009101F0919201808180618083E0919101F0
:10127000F0919201808188608083E0919101F091EA
:101280009201808180688083E0919101F0919201C8
:1012900080818F7D80830E94DE000E94DE0080E0DE
:1012A0000E94960088E090E00E94A9188C01EE242C
:1012B000E394F12CDC01ED92FC92FC01128213828A
:1012C00014821582178216822091300230913102E9
:1012D000388F2F8BB9010E94DE04A0902E02B090AF
:1012E0002F02B501C8010E94DE0420902C0230902C
:1012F0002D02B101C8010E94DE046090320270909C
:101300003302B801C3010E94750588E090E00E9495
:10131000A9188C0182E090E0D8018D939C93F8018C
:1013200012821382148215821782168260912A0219
:1013300070912B02C8010E94DE04809028029090D8
:101340002902B401C8010E94DE04209126023091D6
:1013500027023C8F2B8FB901C8010E94DE04B8011F
:10136000C3010E94750588E090E00E94A9188C01D5
:1013700083E090E0D8018D939C93F8011282138250
:101380001482158217821682209124023091250240
:1013900038A72FA3B901C8010E94DE046091220280
:1013A00070912302C8010E94DE04B801C3010E94AB
:1013B00075058AE090E00E94A9188C01DC01ED928D
:1013C000FC92FC011282138214821582178216820B
:1013D00082E090E00E94A918DC011D921C92F801A5
:1013E0009187808720912002309121023E8F2D8F9E
:1013F000B901C8010E94DE0480911E0290911F0273
:101400009AA389A3BC01C8010E94DE04A0911C021A
:10141000B0911D02BCA3ABA3BD01C8010E94DE04B4
:1014200084E090E00E94A9182C01009709F451C0B3
:10143000FC011183008313821282D8011696BC919D
:10144000BDABF801F781F9ABEB2EFF2EE114F104EF
:10145000A1F10DA919A90115110551F1D801129693
:10146000CD90DC901397C114D10411F1ED91FC9152
:10147000FAA7E9A7D6010D90BC91A02DBEA7ADA7F4
:1014800020813181428153816D917D918D919C911B
:101490000E942E1687FF0AC02DA53EA5F8013183B4
:1014A0002083E9A5FAA5D601ED93FC938601D3CF5D
:1014B000D7011296ED90FC90C9CFD3011296ED9111
:1014C000FC911397309709F0D7C113965C924E9216
:1014D00012978CE090E00E94A9188C01FC01118207
:1014E000108213821282158214821782168211864C
:1014F0001086138612862F89388D2115310591F0BB
:101500008B8D9C8D892B71F081E090E0918380839D
:1015100082E090E09383828335832483AB8DBC8DFE
:10152000B783A6838CE090E00E94A9187C01FC019F
:1015300011821082138212821582148217821682FF
:1015400011861086138612862FA138A52115310524
:1015500079F00115110561F081E090E091838083BD
:1015600083E090E09383828335832483118700870F
:1015700082E090E00E94A9188C01DC011D921C926F
:101580006BA17CA10E94B60487E090E00E94A9189C
:10159000FC01CC24C394D12CD182C0821282F4826B
:1015A000E38216830583BC01C3010E944D058CE0D4
:1015B00090E00E94A9188C01FC0111821082138214
:1015C0001282158214821782168211861086138663
:1015D00012862114310421F0D382C2823582248202
:1015E00082E090E00E94A9187C01DC011D921C920F
:1015F0006D8D7E8D0E94B60487E090E00E94A91850
:10160000FC0142E0C42ED12CD182C082128214830C
:101610000383F682E582BC01C3010E944D058CE084
:1016200090E00E94A9188C01FC01118210821382A3
:1016300012821582148217821682118610861386F2
:101640001286A114B10469F08114910451F081E073
:1016500090E091838083D382C282B582A4829782F4
:10166000868282E090E00E94A9187C01DC011D9234
:101670001C9269A17AA10E94B60487E090E00E94C2
:10168000A918FC0183E090E0918380831282148387
:101690000383F682E582BF01C3010E944D0588E104
:1016A00091E00E949D0584E691E00E949D05FE0167
:1016B0003996FC8BEB8B9E01235F3F4F3E8B2D8B2E
:1016C00080E480937C0080917A00806480937A002B
:1016D00080917A0086FDFCCF2091780030917900CE
:1016E000ACE9BFEF0E9494182FEF33E040E050E0E8
:1016F0000E946615DA01C9018C599F4FAF4FBF4F49
:1017000021968CAF9DAFAEAFBFAF21972FB7F894A6
:1017100060917701709178018091790190917A01BF
:101720002FBF20ED37E040E050E00E949015CA0145
:10173000B90128E130E040E050E00E949015259684
:101740006CAF7DAF8EAF9FAF25972396AEADBFAD8B
:101750002397BD01BB0F880B990B0E94DD166B010F
:101760007C0123EC35EF48E450E40E94921720E01E
:1017700030E040E451E40E9433160E94FF1720E05D
:1017800030E040E751E40E94921720E030E040EA68
:1017900051E40E94C2150E94A51629966CAF7DAF38
:1017A0008EAF9FAF2997E0913202F0913302FAA3F6
:1017B000E9A320803180F1013097B9F000811181D7
:1017C000D8018D919C91019709F05DC0EDADFEAD02
:1017D000BF01FF0F880B990B0E94DD16D8011296EE
:1017E0006D937D938D939C931597F1013097C9F07C
:1017F00000811181D8018D919C91029709F047C019
:101800002796EEADFFAD2797BF01FF0F880B990B11
:101810000E94DD16D80112966D937D938D939C9353
:101820001597F101309769F0A081B1818D919C915C
:101830001197039781F51296CD92DD92ED92FC926D
:10184000159791012115310579F1F901A081B18137
:1018500016960D90BC91A02D109709F18D919C9139
:101860001197FC01108A118A128A138A12960D9020
:10187000BC91A02DF1CFFC01828193810097D9F713
:101880005382428226CE0280F381E02D95CF0280E2
:10189000F381E02DABCF0280F381E02DC3CFD901DE
:1018A00012962D913C91CECFE9A1FAA10280F3814D
:1018B000E02DF8A7EFA39F012115310509F4DEC043
:1018C000F901A081B18116960D90BC91A02D1097C1
:1018D00069F08D919C911197FC01108A118A128AEE
:1018E000138A12960D90BC91A02DF1CFD9011296BA
:1018F0002D913C91E1CFC701B6010E948D1787FD64
:1019000039C0A7019601C301B2010E948D171816B4
:101910008CF52F89388D498D5A8DC301B2010E94F3
:10192000C1159B01AC0160E070E080E89FE30E947C
:1019300033164B015C01A3019201C701B6010E945D
:10194000C1159B01AC01C501B4010E94921720E0B2
:1019500030E040E85FE30E94C215F801608B718BB4
:10196000828B938BEB8DFC8D0280F381E02DFC8FBD
:10197000EB8F92C0D80118968D909D90AD90BC9041
:101980001B97A7019601C301B2010E942E161816DB
:1019900094F0A5019401C701B6010E942E161816F5
:1019A00054F080E090E0A0E8BFE3F801808B918BD9
:1019B000A28BB38BD7CFD8011C968D919D910D90A2
:1019C000BC91A02D8D8F9E8FAF8FB8A3A5019401E0
:1019D000C701B6010E948D1718163CF52D8D3E8D5E
:1019E0004F8D58A1C701B6010E942E161816ECF0B3
:1019F0002D8D3E8D4F8D58A1C501B4010E94C1159A
:101A00009B01AC0160E070E080E89FE30E94331628
:101A10002B013C01A5019401C701B6010E94C1152B
:101A20009B01AC01C301B20190CF2D8D3E8D4F8D36
:101A300058A1C701B6010E948D1718160CF092CF5D
:101A4000A50194016D8D7E8D8F8D98A10E942E161B
:101A500081116AC0A5019401C301B2010E942E1632
:101A6000882309F461C02F89388D498D5A8DC301AF
:101A7000B20156C0D10112962D903C902114310430
:101A800009F45AC0F1010190F081E02DFCA3EBA311
:101A9000268137813C8F2B8F8B8D9C8D009751F346
:101AA000DC010D911C91EBA1FCA1C280D380E480EC
:101AB000F580D8018D919D910D90BC91A02D8F8BBB
:101AC000988FA98FBA8FF8014480558066807780FF
:101AD0009C01AD01C701B6010E942E162F89388DD9
:101AE000498D5A8D87FF07CFC301B2010E942E1680
:101AF00081111AC0D8011896CD90DD90ED90FC9020
:101B00001B97A7019601C301B2010E942E168823DC
:101B100059F0F8012485358546855785C701B601FA
:101B20000E942E1681113DCFD80150961D921D9214
:101B30001D921C92539716CFE9A1FAA10481158139
:101B4000772473940115110509F0BBC09E012B5F2A
:101B50003F4F3A8B298B2FA138A52115310509F468
:101B600060C4D9018D909C90F40100851185D80145
:101B70006D917C916115710519F0C8010E941E06D6
:101B8000F80111821082D40116966D907C90611438
:101B9000710409F440C2F3010081118120E030E0BA
:101BA000A901D80150966D917D918D919C9153978B
:101BB0000E948D1718160CF083C1F801C080D180E7
:101BC000E280F380A7019601648175818681978107
:101BD0000E942E16882359F000E010E09801B7010A
:101BE000A601D40118968D919C910E940605F301DF
:101BF00000811181D80114962D903D904D905C90FC
:101C00001797A201910118966D917D918D919C91EC
:101C10001B970E942E16F801811157C1F081FF8B8E
:101C2000D8011196BC91BB8FF801F281FD8FD801CC
:101C30001396BC91B9A3F801F485FBA3D8011D96B6
:101C4000FC901D971E96EC901E971F96DC907F8946
:101C50006B8D9D8D89A1272F362F492F582FBF2F90
:101C60006B2F7F2D8E2D9D2D0E942E16882309F41B
:101C7000B0C1F801A088B188C288138920E030E0A3
:101C800040E85FE36A2D7B2D8C2D912F0E942E164C
:101C9000811159C000E010E020E83FE3B201A1014A
:101CA000D40118968D919C910E940605D301ED9167
:101CB000FC91448555856685778500E010E09801A4
:101CC0002BC1D801ED90FC90F7018381948100979E
:101CD000B1F1C580D680C114D10489F10E94770387
:101CE0004B015C0120E030E0A9010E948D1718161D
:101CF0001CF5D70112967C92D601ED90FC90E11470
:101D0000F104E9F0F701C080D180D60150962D9101
:101D10003D914D915C915397C501B4010E948D177F
:101D200018162CF4F601808A918AA28AB38AD70108
:101D30001296ED90FC90E3CFF7011282DDCFF8010F
:101D400002811381FFCE2D863E864F86588A9501EB
:101D50004C2D512FC901DA0189879A87AB87BC873F
:101D6000FC89FF938B898F939E899F93AD89AF9355
:101D70001F93CF923F932F93DF92EF92FF92BBA1DD
:101D8000BF931F93CF923F932F93E9A1EF93FD8DC4
:101D9000FF932B8D2F933F893F93A12CB12C30E8DB
:101DA000C32E3FE3D32E8201710120E030E0A90170
:101DB000BF89AB8DFD8DE9A16B2F7A2F8F2F9E2FC1
:101DC0000E94FA0009851A852B853C854D855E8524
:101DD0006F857889D40118968D919C910E94060593
:101DE000D301ED91FC9160857185828593856D832A
:101DF0007E838F8398870089118932892389A8017E
:101E0000A32FB22F9D0109831A832B833C83E48483
:101E1000F5840685178521E030E02C0F3D1F3F93A8
:101E20002F933A893F9329892F93BF93AF935F9361
:101E30004F931F930F93FF92EF92BF93AF935F93D4
:101E40004F9323812F9322812F9321812F932081E0
:101E50002F93A12CB12C650120E030E040E85FE336
:101E60000E94FA000FB6F894DEBF0FBECDBF098105
:101E70001A812B813C814D815E816F817885D401EF
:101E800018968D919C910E940605D301ED91FC91CD
:101E9000C484D584E684F7842085318542855385C2
:101EA000C701B6010E942E16882351F000E010E011
:101EB0009801B701A601F401808591850E9406056D
:101EC000D30112966D907C9062CEC088D188E28852
:101ED000F38820E030E040E85FE36C2D7D2D8E2D0F
:101EE0009F2D0E942E1681111BC000E010E020E8FB
:101EF0003FE3B201A101D40118968D919C910E94FB
:101F00000605D301ED91FC9100891189228933895D
:101F10004085518562857385F40180859185B3CFB5
:101F20002D863E864F86588A9601A701C901DA019F
:101F300089879A87AB87BC87D8017C9111966C9171
:101F4000119712969C91129713968C91BC89BF930E
:101F5000EB89EF93FE89FF93AD89AF935F934F9326
:101F60003F932F93D8011F96EC911F97EF931E96E6
:101F7000EC911E97EF931D96EC911D97EF931C9695
:101F8000EC91EF935F934F933F932F938F939F9396
:101F90006F937F93A12CB12C20E8C22E2FE3D22E79
:101FA0008201710120E030E0A901DB01FC016B2F0F
:101FB0007A2F8F2F9E2F0E94FA0009851A852B8574
:101FC0003C854D855E856F857889F4018085918596
:101FD00005CF00E010E09801B201A101F401808575
:101FE00091850E940605D301ED91FC91008911892C
:101FF000228933894481558166817781F401808506
:1020000091850E940605D301ED91FC914481558193
:102010006681778152CEF4010084F185E02DFEAB1C
:10202000EDAB20813181388F2F8B8F89988D009770
:1020300009F4EFC11C01D1010D911C91011511058D
:1020400009F4D4C1AF89B88D12968D919D910D90F0
:10205000BC91A02D8D8F9E8FAF8FB8A3F1012281EF
:10206000338144815581BC01CD010E942E1687FF2A
:10207000C6C1D1010D90BC91A02DBC8FAB8FEF8953
:10208000F88D0284F385E02DFAA3E9A3AB2B09F4C4
:10209000ADC1AF89B88D16968D919D910D90BC9173
:1020A000A02D8BA39CA3ADA3BEA3D10112968D91AD
:1020B0009D910D90BC91A02D89AB9AABABABBCAB05
:1020C000F10186809780A084B184A5019401AB8D35
:1020D000BC8D16966D917D918D919C9119970E9462
:1020E000C11569AF7AAF8BAF9CAF2D8D3E8D4F8DF3
:1020F00058A1E9A1FAA162817381848195810E942E
:10210000C11569A77AA78BA79CA729A93AA94BA9AA
:102110005CA9AB8DBC8D12966D917D918D919C913A
:1021200015970E94C1152B013C012BA13CA14DA18B
:102130005EA1E9A1FAA166817781808591850E94DF
:10214000C1156DA77EA78FA798AB29A53AA54BA56A
:102150005CA569AD7AAD8BAD9CAD0E9492176B0109
:102160007C012DA53EA54FA558A9C301B2010E942F
:1021700092179B01AC01C701B6010E94C1156B010A
:102180007C0120E030E0A9010E942E1687FF39C1B2
:10219000C701B60190582FE632E143E85AE30E94A6
:1021A0002E1687FD33C1A50194016BA17CA18DA1E1
:1021B0009EA10E94C1154B015C0129A93AA94BA916
:1021C0005CA96D8D7E8D8F8D98A10E94C11569AB24
:1021D0007AAB8BAB9CABA5019401C301B2010E9409
:1021E00092172B013C0129A93AA94BA95CA969AD19
:1021F0007AAD8BAD9CAD0E9492179B01AC01C301DF
:10220000B2010E94C115A70196010E9433162B014D
:102210003C0120E030E0A9010E942E1687FDF6C0A7
:1022200020E030E040E85FE3C301B2010E948D1777
:1022300018160CF4EBC0A501940169A57AA58BA52D
:102240009CA50E9492174B015C0129A93AA94BA9B0
:102250005CA96DA57EA58FA598A90E9492179B01E8
:10226000AC01C501B4010E94C115A70196010E94ED
:1022700033166B017C0120E030E0A9010E942E168C
:1022800087FDC4C020E030E040E85FE3C701B6014D
:102290000E948D1718160CF4B9C08CE090E00E94D3
:1022A000A9188C01009709F4B1C0EB8DFC8DDC01FD
:1022B000ED93FC93A301920169A57AA58BA59CA53A
:1022C0000E9492172D8D3E8D4F8D58A10E94C215F0
:1022D000D80112966D937D938D939C931597A301CE
:1022E00092016DA57EA58FA598A90E9492172BA19A
:1022F0003CA14DA15EA10E94C215F80166837783BF
:102300008087918729A13AA133872287AF89B88D29
:102310001B961C930E931A97F90111830083D10128
:102320000D931C93EB8DFC8D13870287D1011A96B8
:10233000AD90BC90C1010E944519A114B10409F4EB
:102340004EC0F8012281338144815581D501129616
:102350006D917D918D919C9115970E94C1152B01D6
:102360003C01F8012681378140855185D5011696BB
:102370006D917D918D919C9119970E94C1156B0172
:102380007C0120E030E0A901C301B2010E942E16B9
:1023900087FF04C077FA709477F8709420E030E0FB
:1023A000A901C701B6010E942E1687FF04C0F7FAE3
:1023B000F094F7F8F0942FE632E143E85AE3C301D2
:1023C000B2010E942E1687FF1FC02FE632E143E8BC
:1023D0005AE3C701B6010E942E1687FF15C0EDA96A
:1023E000FEA90190F081E02DF88FEF8BAF89B88DB9
:1023F0001A960D90BC91A02DB88FAF8B16CE1801F8
:102400001ACEC701B601C7CE150190CF2B8C3C8CDC
:1024100030CEEFA1F8A50280F381E02DF8A7EFA35D
:102420009ACBE0913202F09133020280F381E02DE9
:10243000309709F486C2A081B1818D919C9111974A
:10244000019799F71896ED91FC91008111811DAAD1
:102450001EAA1FAA18AE19AA1AAA1BAA1CAA0115FD
:10246000110509F4BDC1D8011A960D90BC91A02D9B
:10247000BAA7A9A7109709F4B3C1F801C280D38005
:10248000E480F58012968D919D910D90BC91A02DC8
:102490008DA79EA7AFA7B8AB9C01AD01C701B60140
:1024A0000E94C1152B013C01F80136802780F08580
:1024B000FF8BD8011996BC91BB8FE9A5FAA5F681CF
:1024C000FFA3A9A5BAA51796BC91BD8FE9A5FAA54A
:1024D000F085F9A3A9A5BAA51996BC91BBA32FA114
:1024E0003D8D4F2F5B2F632D722D8F899B8D0E9409
:1024F000C1154B015C0120E030E0A901C301B2012C
:102500000E942E1687FF04C077FA709477F87094B3
:1025100020E030E0A901C501B4010E942E1687FF1A
:1025200004C0B7FAB094B7F8B0942FE632E143E8AC
:102530005AE3C501B4010E948D1718160CF047C06C
:102540002FE632E143E85AE3C301B2010E942E169E
:1025500087FF3DC020E030E0A901632D722D8F89F7
:102560009B8D0E948D1718160CF42DC120E030E0D1
:10257000A9016FA17D8D89A19BA10E948D171816BD
:102580000CF026C1AFA0BD8C09A11BA1A70196012B
:10259000B501C8010E9492179B01AC0169A97AA9F3
:1025A0008BA99CA90E94C21569AB7AAB8BAB9CAB83
:1025B0009501A8016DA97EA98FA998AD0E94C215A9
:1025C0006DAB7EAB8FAB98AF09A51AA548CF20E0C5
:1025D00030E0A901632D722D8F899B8D0E942E16EC
:1025E000882359F020E030E0A9016FA17D8D89A1F9
:1025F0009BA10E942E16811143C020E030E0A9016A
:10260000632D722D8F899B8D0E948D1718169CF556
:10261000A32CB22C0F891B8DA70196016DA57EA559
:102620008FA598A90E94C1152B013C019501A80115
:102630000E94921720E030E040E05FE30E94921792
:102640005B018C012FA13D8D49A15BA1632D722DF2
:102650008F899B8D0E942E1620E030E040EC5FE3D6
:1026600087FD04C020E030E040E450E4C301B20143
:102670000E94331643C0AFA0BD8C09A11BA1CCCFD3
:1026800020E030E0A901632D722D8F899B8D0E947F
:102690008D1718160CF09CC020E030E0A9016FA146
:1026A0007D8D89A19BA10E948D1718160CF090C0FA
:1026B0002FE632E143E85AE3C501B4010E942E1629
:1026C00087FF25C0A70196016DA57EA58FA598A9B6
:1026D0000E94C1152B013C01AC019B01632D722DA1
:1026E0008F899B8D0E9492175B018C0120E030E066
:1026F00040E05FE3C301B2010E9492179B01AC016D
:10270000C701B6010E94C2156B017C013FCF2FE6C5
:1027100032E143E85AE3C501B4010E948D1718164F
:102720000CF056C02FA13D8D49A15BA1632D722DE8
:102730008F899B8D0E94C2152B013C01A701960138
:102740006DA57EA58FA598A90E94C1156DA77EA72E
:102750008FA798AB20E030E040E05FE3C301B20117
:102760000E9492172DA53EA54FA558A90E94921729
:102770005B018C012FA13D8D49A15BA16FA17D8DD6
:1027800089A19BA10E94C215232D322D4F895B8DFB
:102790000E94C2152DA53EA54FA558A90E949217CB
:1027A0006F8B788F898F9A8F20E030E040E450E47F
:1027B000C301B2010E9492179B01AC016F89788D11
:1027C000898D9A8D55CFA32CB22C0F891B8DDECE0F
:1027D000C12CD12C7601A12CB12C00E010E0D6CE7A
:1027E00020E030E0A9016DA97EA98FA998AD0E94D3
:1027F0002E16882309F4A5C02DA93EA94FA958ADCE
:1028000069A97AA98BA99CA90E9433166B017C0146
:10281000C701B6010E94A5169B01AC01AFEFB0E065
:102820000E94851524E630E040E050E00E946615E5
:10283000B22EA32E022F132F0E94DE0001151105C8
:1028400009F083C080E00E9496002FB7F894609151
:102850007701709178018091790190917A012FBF71
:1028600028EE33E040E050E00E949015CA01B90123
:102870004AE00E94AA0587E691E00E949D058DAD81
:102880009EAD0E94EE0587E691E00E949D05279689
:102890008EAD9FAD27970E94EE0587E691E00E94DE
:1028A0009D0523968EAD9FAD23970E94EE0587E68A
:1028B00091E00E949D05A7019601C701B6010E9403
:1028C0000718882309F48CC089E691E00E949D05D1
:1028D00084E691E00E949D050E9445024B015C0147
:1028E00080EDC82E87E0D82EE12CF12C0E94450205
:1028F000681979098A099B09683E73408105910529
:10290000A8F3E1E0CE1AD108E108F108F8EE8F0E45
:10291000F3E09F1EA11CB11CC114D104E104F10419
:1029200029F780E090E0892B11F40C94600B0E9451
:10293000D402882311F40C94600B0E9400000C94C4
:10294000600BC12CD12C760163CF0F3F110511F420
:1029500081E079CFE5ECF0E0E491E33029F140F457
:10296000E130C1F0E230D9F0003811058CF76ACFC0
:10297000E73031F1E83061F1E430B1F78091800067
:102980008062809380008B2D9A2D90938B00809392
:102990008A005BCF84B5806884BDB7BC56CF84B550
:1029A000806284BDB8BC51CF8091800080688093E4
:1029B00080008B2D9A2D909389008093880045CFBD
:1029C0008091B00080688093B000B092B3003DCF9A
:1029D0008091B00080628093B000B092B40035CF97
:1029E00046015701E894B7F82FEF3FEF4FE75FE755
:1029F000C501B4010E94071881110DC02FEF3FEFF0
:102A00004FE75FE7C501B4010E942E1618161CF4AB
:102A10008DE691E05BCF2FEF3FEF4FE75FE4C7011B
:102A2000B6010E948D1718161CF481E791E04ECF75
:102A30002FEF3FEF4FE75FECC701B6010E942E1664
:102A400087FDF3CF20E030E0A901C701B6010E9465
:102A50002E1687FF09C06DE28FE791E00E940A03FE
:102A6000F7FAF094F7F8F0942DEC3CEC4CE45DE3CD
:102A7000C701B6010E94C2154B015C010E94AC1651
:102A80006B017C010E94DB169B01AC01C501B40106
:102A90000E94C1154B015C014AE0C701B6010E94CA
:102AA000AA056EE28FE791E00E940A0320E030E081
:102AB00040E251E4C501B4010E9492170E94AC1695
:102AC00090E080E04AE00E94AA0502CF052E97FB25
:102AD0001EF400940E947D1557FD07D00E949015AA
:102AE00007FC03D04EF40C947D155095409530951D
:102AF00021953F4F4F4F5F4F08959095809570956A
:102B000061957F4F8F4F9F4F08950E94B215A59FEB
:102B1000900DB49F900DA49F800D911D11240895D8
:102B2000A1E21A2EAA1BBB1BFD010DC0AA1FBB1FD1
:102B3000EE1FFF1FA217B307E407F50720F0A21B43
:102B4000B30BE40BF50B661F771F881F991F1A94B0
:102B500069F760957095809590959B01AC01BD01DA
:102B6000CF010895A29FB001B39FC001A39F700D34
:102B7000811D1124911DB29F700D811D1124911D85
:102B800008955058BB27AA270E94D9150C945317B3
:102B90000E94451738F00E944C1720F039F49F3FEF
:102BA00019F426F40C9442170EF4E095E7FB0C940C
:102BB0003C17E92F0E94641758F3BA17620773078E
:102BC0008407950720F079F4A6F50C9486170EF487
:102BD000E0950B2EBA2FA02D0B01B90190010C012D
:102BE000CA01A0011124FF27591B99F0593F50F445
:102BF000503E68F11A16F040A22F232F342F44279D
:102C0000585FF3CF469537952795A795F040539594
:102C1000C9F77EF41F16BA0B620B730B840BBAF064
:102C20009150A1F0FF0FBB1F661F771F881FC2F7CF
:102C30000EC0BA0F621F731F841F48F487957795E3
:102C40006795B795F7959E3F08F0B0CF9395880F9D
:102C500008F09927EE0F9795879508950E94181709
:102C600008F481E008950E9447160C9453170E94BF
:102C70004C1758F00E94451740F029F45F3F29F0A7
:102C80000C943C1751110C9487170C9442170E9416
:102C9000641768F39923B1F3552391F3951B550BF2
:102CA000BB27AA2762177307840738F09F5F5F4F1F
:102CB000220F331F441FAA1FA9F335D00E2E3AF05E
:102CC000E0E832D091505040E695001CCAF72BD076
:102CD000FE2F29D0660F771F881FBB1F26173707C7
:102CE0004807AB07B0E809F0BB0B802DBF01FF27F9
:102CF00093585F4F3AF09E3F510578F00C943C1783
:102D00000C9487175F3FE4F3983ED4F3869577954C
:102D10006795B795F7959F5FC9F7880F911D9695B1
:102D2000879597F90895E1E0660F771F881FBB1F0D
:102D3000621773078407BA0720F0621B730B840BBA
:102D4000BA0BEE1F88F7E09508950E94AC166894C0
:102D5000B1110C94871708950E946C1788F09F5743
:102D600098F0B92F9927B751B0F0E1F0660F771FAF
:102D7000881F991F1AF0BA95C9F714C0B13091F0A5
:102D80000E948617B1E008950C948617672F782F5C
:102D90008827B85F39F0B93FCCF38695779567956A
:102DA000B395D9F73EF490958095709561957F4FD6
:102DB0008F4F9F4F0895E89409C097FB3EF490957C
:102DC0008095709561957F4F8F4F9F4F9923A9F004
:102DD000F92F96E9BB279395F69587957795679593
:102DE000B795F111F8CFFAF4BB0F11F460FF1BC0D7
:102DF0006F5F7F4F8F4F9F4F16C0882311F096E96A
:102E000011C0772321F09EE8872F762F05C0662317
:102E100071F096E8862F70E060E02AF09A95660FD0
:102E2000771F881FDAF7880F9695879597F9089589
:102E3000990F0008550FAA0BE0E8FEEF16161706CB
:102E4000E807F907C0F012161306E407F50798F033
:102E5000621B730B840B950B39F40A2661F0232B4C
:102E6000242B252B21F408950A2609F4A140A695C8
:102E70008FEF811D811D089597F99F6780E870E0AD
:102E800060E008959FEF80EC089500240A941616E0
:102E9000170618060906089500240A941216130648
:102EA000140605060895092E0394000C11F48823D6
:102EB00052F0BB0F40F4BF2B11F460FF04C06F5FF2
:102EC0007F4F8F4F9F4F089557FD9058440F551FC8
:102ED00059F05F3F71F04795880F97FB991F61F09C
:102EE0009F3F79F087950895121613061406551F13
:102EF000F2CF4695F1DF08C0161617061806991F7F
:102F0000F1CF86957105610508940895E894BB2773
:102F100066277727CB0197F908950E94181708F4C0
:102F20008FEF08950E94A5170C9453170E94451720
:102F300038F00E944C1720F0952311F00C943C17A8
:102F40000C94421711240C9487170E94641770F395
:102F5000959FC1F3950F50E0551F629FF001729F3E
:102F6000BB27F00DB11D639FAA27F00DB11DAA1F4D
:102F7000649F6627B00DA11D661F829F2227B00D9A
:102F8000A11D621F739FB00DA11D621F839FA00D25
:102F9000611D221F749F3327A00D611D231F849F75
:102FA000600D211D822F762F6A2F11249F575040CC
:102FB0009AF0F1F088234AF0EE0FFF1FBB1F661F47
:102FC000771F881F91505040A9F79E3F510580F010
:102FD0000C943C170C9487175F3FE4F3983ED4F3AE
:102FE000869577956795B795F795E7959F5FC1F7B4
:102FF000FE2B880F911D9695879597F908959F93BD
:103000000E940E180F9007FCEE5F0C9437180E9478
:103010001817880B990B08950C9442170E946C178F
:10302000D8F3E894E0E0BB279F57F0F02AED3FE0AB
:1030300049EC06C0EE0FBB0F661F771F881F28F0F4
:10304000B23A62077307840728F0B25A620B730B17
:10305000840BE3959A9572F7803830F49A95BB0FFC
:10306000661F771F881FD2F790480C944D18EF9376
:10307000E0FF07C0A2EA2AED3FE049EC5FEB0E94C7
:10308000D9150E9453170F90039401FC9058E8E65D
:10309000F0E00C9459189F3F31F0915020F487953F
:1030A00077956795B795880F911D9695879597F9B0
:1030B00008959F938F937F936F93FF93EF939B015B
:1030C000AC010E949217EF91FF910E946D182F9111
:1030D0003F914F915F910C949217DF93CF931F9381
:1030E0000F93FF92EF92DF927B018C01689406C0F0
:1030F000DA2EEF010E94A517FE01E894A591259113
:10310000359145915591A6F3EF010E94D915FE0125
:103110009701A801DA9469F7DF90EF90FF900F9183
:103120001F91CF91DF9108950E94B215332312F4BD
:103130008A1B9B0B0C949E180E94B215B7FF089532
:10314000821B930B0895EE0FFF1F0590F491E02D65
:1031500009940F931F93CF93DF938230910510F45E
:1031600082E090E0E0913602F091370230E020E01A
:10317000B0E0A0E0309799F42115310509F44AC078
:10318000281B390B24303105D8F58A819B816115C4
:10319000710589F1FB0193838283FE0111C0408197
:1031A00051810281138148175907E0F048175907E8
:1031B00099F4109761F012960C93129713961C9342
:1031C0003296CF01DF91CF911F910F910895009317
:1031D000360210933702F4CF2115310551F0421712
:1031E000530738F0A901DB019A01BD01DF01F801A5
:1031F000C1CFEF01F9CF9093370280933602CDCF44
:10320000FE01E20FF31F819391932250310939831C
:103210002883D7CF2091340230913502232B41F4FB
:103220002091020130910301309335022093340242
:1032300020910001309101012115310541F42DB794
:103240003EB74091040150910501241B350BE091DC
:103250003402F0913502E217F307A0F42E1B3F0B66
:103260002817390778F0AC014E5F5F4F24173507F8
:1032700048F04E0F5F1F5093350240933402819304
:1032800091939FCFF0E0E0E09CCFCF93DF93009746
:10329000E9F0FC01329713821282A0913602B091BC
:1032A0003702ED0130E020E01097A1F42081318158
:1032B000820F931F2091340230913502281739076D
:1032C00009F061C0F0933502E0933402DF91CF91B1
:1032D0000895EA01CE17DF07E8F54A815B819E0178
:1032E00041155105B1F7E901FB83EA8349915991F1
:1032F000C40FD51FEC17FD0761F480819181029600
:10330000840F951FE90199838883828193819B8330
:103310008A83F0E0E0E012968D919C9113970097DC
:10332000B9F52D913C911197CD010296820F931F13
:1033300020913402309135022817390739F6309739
:1033400051F51092370210923602B0933502A093D5
:103350003402BCCFD383C28340815181840F951F37
:10336000C817D90761F44E5F5F4F88819981480F74
:10337000591F518340838A819B81938382832115C6
:10338000310509F0B0CFF0933702E09336029ECFBB
:10339000FD01DC01C0CF13821282D7CFF894FFCF9A
:1033A000000038028000000000000A036A02970251
:1033B0005703C802A602BA0254696D652868292C11
:1033C000536F696C5F4D6F69737475726528252939
:1033D0002C54656D70657261747572652843292C73
:1033E00054696D655F6F665F4461792868292C496F
:1033F000727269676174696F6E5F496E74656E732E
:10340000697479000D0A002C006E616E00696E66A9
:06341000006F766600006B
:00000001FF
